:100000000C94E6000C940E010C940E010C940E015D
:100010000C940E010C940E010C940E010C940E0124
:100020000C940E010C940E010C940E010C945A04C5
:100030000C940E010C940E010C940E010C940E0104
:100040000C94F6060C940E010C949F030C94790307
:100050000C940E010C940E010C940E010C940E01E4
:100060000C940E010C940E01423120434C49434B39
:10007000454400423520434C49434B4544004234FB
:1000800020434C49434B454400423320434C4943B1
:100090004B454400423220434C49434B45440042C7
:1000A000312050524553534544004235205052456B
:1000B0005353454400423420505245535345440065
:1000C000423320505245535345440042322050524F
:1000D00045535345440052454C41592031204F4E21
:1000E0000053455420544F204D4F4445200054495F
:1000F0004D452053455420544F20005245534554FC
:100100000052454C41592032204F46460052454C42
:1001100041592032204F4E00646576656C6F706DDA
:10012000656E742E61726475696E6F2D73686F7081
:100130002E637A00446576656C6F70656420627921
:100140002041726475696E6F20646576656C6F70AE
:100150006D656E740056657273696F6E20312E3056
:100160000050726F6A656374206E616D65000000F7
:100170000000240027002A000000000025002800BD
:100180002B000000000023002600290004040404C2
:100190000404040402020202020203030303030331
:1001A000010204081020408001020408102001020E
:1001B00004081020000000080002010000030407EA
:1001C0000000000000000000EC09E20911241FBE3D
:1001D000CFEFD8E0DEBFCDBF11E0A0E0B1E0E4E3B7
:1001E000F8E102C005900D92AA37B107D9F724E0D3
:1001F000AAE7B1E001C01D92AF33B207E1F710E00A
:10020000C5EED0E004C02197FE010E94E10AC43E81
:10021000D107C9F70E9441070C940D0C0C94000003
:10022000CF92DF92EF92FF920F931F93CF93DF93C2
:100230006C017A018B01C0E0D0E0CE15DF0581F0C2
:10024000D8016D918D01D601ED91FC910190F08165
:10025000E02DC6010995892B11F02196EECF7E0184
:10026000C701DF91CF911F910F91FF90EF90DF9029
:10027000CF900895089580E090E00895FC01538D9B
:10028000448D252F30E0842F90E0821B930B541770
:1002900018F081509F4F089501970895FC01918DAA
:1002A000828D981759F0828DDF01A80FB11D5D96E0
:1002B0008C91928D9F5F928F90E008958FEF9FEFCA
:1002C0000895FC01918D828D981731F0828DE80F91
:1002D000F11D858D90E008958FEF9FEF0895FC014B
:1002E000918D828D981B892F90E008958BE891E085
:1002F0000E946F0121E0892B09F420E0822F0895EC
:10030000FC01848DDF01A80FB11DA35EBE4F2C91AF
:10031000848D90E00196848FA689B7892C93A0895B
:10032000B1898C91837080648C93938D848D9813A4
:1003300006C00288F389E02D80818F7D8083089537
:10034000EF92FF920F931F93CF93DF93EC0181E025
:10035000888F9B8D8C8D981305C0E889F9898081E1
:1003600085FD24C0F62E0B8D10E00F5F1F4FE02E91
:100370008C8DE8120CC00FB607FCFACFE889F9891A
:10038000808185FFF5CFCE010E948001F1CF8B8D5A
:10039000FE01E80FF11DE35EFE4FF0829FB7F89477
:1003A0000B8FEA89FB89808180620AC09FB7F8942D
:1003B000EE89FF896083E889F98980818370806490
:1003C00080839FBF81E090E0DF91CF911F910F91DB
:1003D000FF90EF900895CF93DF93EC01888D8823F1
:1003E000C9F0EA89FB89808185FD05C0A889B989A2
:1003F0008C9186FD0FC00FB607FCF5CF808185FF7D
:10040000F2CFA889B9898C9185FFEDCFCE010E94EA
:100410008001E7CFDF91CF91089580E090E0892BB4
:1004200029F00E94760181110C94000008950E9429
:10043000080C8F929F92AF92BF92CF92DF92EF9271
:10044000FF92CF93DF93EC018E810E94A505AC0152
:100450008FB7F8948090870190908801A0908901CF
:10046000B0908A018FBF89899A89AB89BC8975014F
:100470006401C81AD90AEA0AFB0A2F853889213093
:100480003105E1F01CF4232B51F0DCC022303105A2
:1004900009F46CC02330310509F4AEC0D3C08C859B
:1004A00090E04817590709F0CDC081E090E0988BA3
:1004B0008F87898A9A8AAB8ABC8AC4C02C8530E02F
:1004C0008F8190E0A0E0B0E04217530789F58C15CA
:1004D0009D05AE05BF0588F48E8581110EC081E0B3
:1004E0008E878C819D81009741F0DC01ED91FC911C
:1004F0000480F581E02DBE0109958A859B85A0E0E9
:10050000B0E08C159D05AE05BF0508F09BC08D853C
:10051000811198C081E08D878C819D81009709F4BD
:1005200091C0DC01ED91FC910084F185E02D7EC04D
:100530008C159D05AE05BF0518F0188A1F8611C0E1
:1005400082E090E0988B8F871E868C819D8100973A
:1005500041F0DC01ED91FC910680F781E02DBE01B8
:1005600009958D8A9E8AAF8AB88E6CC08C8590E082
:1005700048175907E1F48D899E89AF89B88DB50177
:10058000A401481B590B6A0B7B0B8F8190E0A0E004
:10059000B0E084179507A607B70748F4898A9A8AB6
:1005A000AB8ABC8A83E090E0988B8F874BC08A85AA
:1005B0009B85A0E0B0E08C159D05AE05BF0570F4ED
:1005C0001D86188A1F868C819D810097D9F1DC01D8
:1005D000ED91FC910284F385E02D28C088859985F2
:1005E000A0E0B0E08C159D05AE05BF0558F5188A52
:1005F0001F868881998112C08C8590E04817590721
:1006000009F18F8190E0A0E0B0E08C159D05AE056A
:10061000BF05C0F4188A1F868A819B81009791F0DC
:10062000DC01ED91FC910480F581E02DBE01DF91AC
:10063000CF91FF90EF90DF90CF90BF90AF909F90C1
:100640008F900994DF91CF91FF90EF90DF90CF9042
:10065000BF90AF909F908F900895089508950C9447
:100660007F0BDC01ED91FC91369720813181820F67
:10067000931F0C942F03CF93DF93EC018EEE90E049
:100680000E942D05BE0180E090E04AE00E945405E2
:10069000DF91CF910C9425058330910599F030F4CA
:1006A0008130910549F0029751F008958430910509
:1006B00061F0059791F0089584E893E008C080EB1D
:1006C00094E005C08CED95E002C088E097E090933F
:1006D0008401809383010C943B0388E195E190931E
:1006E0008401809383010E943B0385E080937A011B
:1006F00008951F920F920FB60F9211242F933F93DC
:100700004F935F936F937F938F939F93AF93BF9319
:10071000EF93FF938BE891E00E948001FF91EF91AE
:10072000BF91AF919F918F917F916F915F914F9109
:100730003F912F910F900FBE0F901F9018951F9211
:100740000F920FB60F9211242F938F939F93EF93D5
:10075000FF93E0919B01F0919C018081E091A101C8
:10076000F091A20182FD11C090818091A4018F5F60
:100770002091A501821751F0E091A401F0E0E55726
:10078000FE4F958F8093A40101C08081FF91EF916E
:100790009F918F912F910F900FBE0F901F901895E2
:1007A000FC011382128261E08181813009F460E0F2
:1007B00080810C94CE05CF93DF93C0917D01D091C1
:1007C0007E01C817D90799F410927C018DE294E05C
:1007D0000E94D00389E294E00E94D0038BEF90E066
:1007E0000E944805CE01DF91CF910C944C03DF911C
:1007F000CF910895CF92DF92EF92FF927C012091EA
:100800007D0130917E0180917C012E153F05A1F183
:1008100081114BC08DE294E00E94D003F0927E01E2
:10082000E0927D01C7010E944C0381EE90E00E949E
:100830002D05C0907D01D0907E010D2C000CEE089E
:10084000FF08F7FE0EC06DE28BE891E00E94A00168
:1008500066277727CB016C197D098E099F094AE02D
:1008600003C04AE0C701B6010E945405FF90EF9013
:10087000DF90CF900C942505811117C081E090E0A6
:100880009093300480932F0460912E0480912D0466
:100890000E94CE0581E080937C0186ED90E0FF9080
:1008A000EF90DF90CF900C944805FF90EF90DF9091
:1008B000CF9008951F920F920FB60F9211242F938D
:1008C0003F934F935F936F937F938F939F93AF93D8
:1008D000BF93CF93DF93EF93FF9380917C018823A5
:1008E00009F468C08091830190918401009731F0F0
:1008F0000197909384018093830111C080917B01C3
:1009000081110DC010927C01C0917D01D0917E01BA
:100910008DE294E00E94D003CE010E944C038091AE
:100920007D0190917E01059709F044C080917C0182
:10093000882309F43FC02091830130918401C901CB
:1009400068E077E00E94AB0A892BC9F4232B21F4DD
:100950008DE294E00E94D00381E090E090932C041B
:1009600080932B0460912A04809129040E94CE0573
:100970008DE091E00E94480581E080937B01909199
:100980007B0180917A01992331F0882331F08150E5
:1009900080937A010FC081110DC089E294E00E941A
:1009A000D00381E091E00E94480585E080937A01C0
:1009B00010927B01FF91EF91DF91CF91BF91AF91A9
:1009C0009F918F917F916F915F914F913F912F9167
:1009D0000F900FBE0F901F90189580913404909146
:1009E00035048230910538F0880F991F880F991FC0
:1009F00005970197F1F70895833081F028F481304D
:100A000099F08230A1F008958730A9F08830B9F0CC
:100A10008430D1F4809180008F7D03C0809180006C
:100A20008F7780938000089584B58F7702C084B556
:100A30008F7D84BD08958091B0008F7703C0809131
:100A4000B0008F7D8093B000089542E050E066E7EB
:100A500071E08BE891E00C9410010F931F93CF93FA
:100A6000DF938C01C0E0D0E0F801EC0FFD1F649132
:100A7000662341F08BE891E00E94A001892B11F0E0
:100A80002196F2CFCE01DF91CF911F910F91089562
:100A9000CF93DF930E942D05EC010E9425058C0F5A
:100AA0009D1FDF91CF9108958F929F92AF92BF9239
:100AB0000F931F93CF93DF93CDB7DEB7A1970FB6F8
:100AC000F894DEBF0FBECDBF19A2423008F44AE051
:100AD0008E010F5D1F4F842E912CA12CB12CA501EE
:100AE00094010E94BF0AE62FB901CA010150110901
:100AF000EA3014F4E05D01C0E95CD801EC93232BEB
:100B0000242B252B61F70115110571F0F8010190D7
:100B10000020E9F73197AF01401B510BB8018BE87A
:100B200091E00E94100102C080E090E0A1960FB613
:100B3000F894DEBF0FBECDBFDF91CF911F910F9113
:100B4000BF90AF909F908F900895CF93DF93282F01
:100B500030E0F901EC54FE4F8491F901E056FE4F6C
:100B6000D491F901E457FE4FC491CC2391F0811147
:100B70000E94FC04EC2FF0E0EE0FFF1FEE57FE4F3B
:100B8000A591B491EC91ED2381E090E021F480E017
:100B900002C080E090E0DF91CF9108951F93CF9342
:100BA000DF93282F30E0F901EC54FE4F8491F901D6
:100BB000E056FE4FD491F901E457FE4FC491CC2387
:100BC000C1F0162F81110E94FC04EC2FF0E0EE0F13
:100BD000FF1FE858FE4FA591B4919FB7F8941111EB
:100BE00004C08C91D095D82302C0EC91DE2BDC930D
:100BF0009FBFDF91CF911F910895CF93DF9390E036
:100C0000FC01E056FE4F2491FC01E457FE4F849115
:100C1000882361F190E0880F991FFC01E259FE4F93
:100C2000C591D491FC01E858FE4FA591B491611192
:100C300009C09FB7F8948881209582238883EC911E
:100C40002E230BC0623061F49FB7F8948881322F55
:100C5000309583238883EC912E2B2C939FBF06C065
:100C60008FB7F894E8812E2B28838FBFDF91CF9127
:100C70000895CF93DF93C1E3D4E061E089810E94BE
:100C8000FD050E94ED0460E088810E94FD050E9440
:100C9000ED0460E089810E94FD05DF91CF910C9405
:100CA000ED04CF93DF93D82FC8E061E08091310449
:100CB0000E94FD050E94ED04D0FF02C060E001C06B
:100CC00061E0809132040E94FD050E94ED0460E025
:100CD000809131040E94FD050E94ED04D695C1501B
:100CE00021F761E0809131040E94FD0560E0809170
:100CF00032040E94FD050E94ED0460E08091310401
:100D00000E94FD050E94ED04809132040E94A50519
:100D1000C82F811105C061E0809132040E94FD0559
:100D20000E94ED0461E0809131040E94FD050E9463
:100D3000ED0481E0C11101C080E0DF91CF91089501
:100D400061E0809132040E94FD050C94ED040F9344
:100D50001F93CF93DF938C010E94A00680E40E9432
:100D600051060E9439060E94A00680EC0E9451069E
:100D7000E8010C5F1F4F89910E945106C017D107EF
:100D8000D1F70E9439060E94A006809133048F702B
:100D900080580E945106DF91CF911F910F910C94C2
:100DA00039063FB7F8948091370490913804A091A8
:100DB0003904B0913A0426B5A89B05C02F3F19F01D
:100DC0000196A11DB11D3FBFBA2FA92F982F8827CB
:100DD000820F911DA11DB11DBC01CD0142E0660F26
:100DE000771F881F991F4A95D1F708951F920F9278
:100DF0000FB60F9211242F933F938F939F93AF932E
:100E0000BF938091870190918801A0918901B09151
:100E10008A013091360423E0230F2D3720F4019608
:100E2000A11DB11D05C026E8230F0296A11DB11D0D
:100E3000209336048093870190938801A0938901C1
:100E4000B0938A018091370490913804A0913904BD
:100E5000B0913A040196A11DB11D8093370490937F
:100E60003804A0933904B0933A04BF91AF919F9195
:100E70008F913F912F910F900FBE0F901F9018955B
:100E80000895CF93DF9300D000D0CDB7DEB778942C
:100E900084B5826084BD84B5816084BD85B582607F
:100EA00085BD85B5816085BD80916E008160809330
:100EB0006E00109281008091810082608093810099
:100EC00080918100816080938100809180008160A9
:100ED000809380008091B10084608093B100809104
:100EE000B00081608093B00080917A00846080932C
:100EF0007A0080917A00826080937A0080917A00F3
:100F0000816080937A0080917A00806880937A0073
:100F10001092C100E0919B01F0919C0182E08083DE
:100F2000E0919701F09198011082E0919901F09180
:100F30009A018FEC80831092A301E0919F01F091C0
:100F4000A00186E08083E0919D01F0919E01808167
:100F500080618083E0919D01F0919E018081886095
:100F60008083E0919D01F0919E0180818068808363
:100F7000E0919D01F0919E0180818F7D80830E9490
:100F8000D1066B017C010E94D106DC01CB018C19DA
:100F90009D09AE09BF09883E9340A105B10598F3AC
:100FA00081E691E00E94480585E591E00E944805B0
:100FB00084E391E00E94480588E191E00E944805A1
:100FC0000E94250581E090E090937E0180937D0151
:100FD00084E893E0909384018093830182E090E021
:100FE00090938601809385018DE294E00E94D00366
:100FF00089E294E00E94D003F8941092800010924D
:101000008100109285001092840088E09DE3909307
:10101000890080938800809181008860809381009E
:101020008091810085608093810080916F00826053
:1010300080936F0078948EE0809333044AE040936D
:10104000B103E091A803F091A903DF011A978D91F4
:101050009C91119788559C4F9093AB038093AA0362
:101060002CE030E03093B3032093B2033C978081AF
:10107000918188559C4F9093AF038093AE0388EB8A
:101080009BE09093B5038093B4034093CA036D91A2
:101090007C91119768557C4F7093C4036093C30390
:1010A0003093CC032093CB036081718168557C4FD2
:1010B0007093C8036093C7039093CE038093CD03CE
:1010C0004093E3036D917C91119768557C4F709329
:1010D000DD036093DC033093E5032093E403608138
:1010E000718168557C4F7093E1036093E0039093A6
:1010F000E7038093E6034093FC036D917C91119785
:1011000068557C4F7093F6036093F5033093FE03AC
:101110002093FD036081718168557C4F7093FA03C1
:101120006093F903909300048093FF0340931504A8
:101130004D915C9148555C4F50930F0440930E04C1
:1011400030931704209316042081318128553C4F99
:10115000309313042093120490931904809318047D
:101160000CE310E08AE0B82E96EFA92E6E0123E082
:10117000C21AD1082AE0E22EF12C30E4932E4FE37C
:10118000842E80918501909186010197F1F540911F
:10119000840180918301942F97FF03C091958195DD
:1011A0009109009729F419821A821B828C822AC025
:1011B0009C01441F4427441FFE013196C901B70119
:1011C0000E94AB0A582F811105C02115310511F479
:1011D00013820BC09927DC01AA5FBE4F8C918383D9
:1011E000511107C02115310521F4442311F09382D8
:1011F00040E0C901B7010E94AB0A9B013197EC1591
:10120000FD05E1F6CE01019654C0E0918301F09115
:101210008401CF01B8010E94AB0A262F862F6A30C5
:1012200048F06B2D0E949F0A80937F018A9D200DBC
:10123000112402C010927F0120938001CF01B801D8
:101240000E94AB0A282F8A3048F06B2D0E949F0A1B
:10125000809381018A9D200D112402C0109281018A
:1012600020938201E0917F01EF70F0E0EA5FFE4F92
:10127000808180937F01E0918001EF70F0E0EA5F70
:10128000FE4F8081E0918101EF70F0E0EA5FFE4F58
:10129000908190938101E0918201EF70F0E0EA5F2C
:1012A000FE4F9081909382018058809380018FE758
:1012B00091E00E94A7068AEA93E00E94190283EC5B
:1012C00093E00E9419028CED93E00E94190285EFD1
:1012D00093E00E9419028EE094E00E9419020E949D
:1012E0000D024FCFFB0186818131C9F028F48F3088
:1012F00041F0803169F008958231C1F08331E9F025
:1013000008958FE990E00E94480581E090E01BC0BD
:101310008BEC90E00E94480582E090E014C080ECE5
:1013200090E00E94480583E090E00DC085EB90E0DE
:101330000E94480584E090E006C08AEA90E00E949E
:10134000480585E090E00C94DB03DC01ED91FC9115
:101350003C9720813181820F931F0C947209FB010D
:1013600086818131C9F028F48F3041F0803169F0F5
:1013700008958231C1F08331E9F0089588E690E064
:101380000E94480581E090E01BC084E990E00E9443
:10139000480582E090E014C089E890E00E9448058A
:1013A00083E090E00DC08EE790E00E94480584E065
:1013B00090E006C083E790E00E94480585E090E059
:1013C0000C94FA0360E0809129040E94FD0560E01E
:1013D00080912D040C94FD05CF93DF93EBE8F1E0B1
:1013E0001382128288EE93E0A0E0B0E084839583BC
:1013F000A683B7838AE191E09183808385EC90E0B6
:101400009587848784EC90E09787868780EC90E0CE
:10141000918B808B81EC90E0938B828B82EC90E0BF
:10142000958B848B86EC90E0978B868B118E128E39
:10143000138E148EC1E3D4E08CE088838BE0898323
:1014400084E690E09C838B8360E08CE00E94FD0545
:1014500060E089810E94FD0560E088810E94CE05E0
:1014600060E089810E94CE05EDE2F4E013821282F1
:1014700084E08083118261E00E94FD058DE294E0AA
:101480000E94D003E9E2F4E01382128285E08083B7
:10149000118261E00E94FD0589E294E00E94D00380
:1014A000E8EAF3E081E8DF011D928A95E9F784E339
:1014B00091E09183808380E591E09093280480936C
:1014C00027046FE08AEA93E00E947C0A60E183ECE3
:1014D00093E00E947C0A61E18CED93E00E947C0A1B
:1014E00062E185EF93E00E947C0A63E18EE094E084
:1014F000DF91CF910C947C0AFC01862F118210821F
:10150000138212821582148292E397832AEF30E0CD
:101510003187208724EF31E03387228715861686AE
:10152000108A1786118A128A138A148A158A168AD3
:10153000178A108E6683148662E00C94FD05991B51
:1015400079E004C0991F961708F0961B881F7A95BA
:10155000C9F780950895AA1BBB1B51E107C0AA1FBC
:10156000BB1FA617B70710F0A61BB70B881F991F44
:101570005A95A9F780959095BC01CD010895A1E2F7
:101580001A2EAA1BBB1BFD010DC0AA1FBB1FEE1FFD
:10159000FF1FA217B307E407F50720F0A21BB30B48
:1015A000E40BF50B661F771F881F991F1A9469F7C4
:1015B00060957095809590959B01AC01BD01CF0120
:1015C0000895EE0FFF1F0590F491E02D09940F93FD
:1015D0001F93CF93DF938230910510F482E090E067
:1015E000E0913D04F0913E0420E030E0A0E0B0E066
:1015F000309719F1408151810281138148175907B1
:10160000C8F08417950769F4109731F012960C937F
:10161000129713961C9327C000933D0410933E0429
:1016200022C02115310519F04217530718F49A0109
:10163000BD01EF01DF01F801DBCF21153105F9F024
:10164000281B390B2430310580F48A819B81611578
:10165000710521F0FB019383828304C090933E04C3
:1016600080933D04FE01329644C0FE01E20FF31F59
:101670008193919322503109398328833AC0209174
:101680003B0430913C04232B41F420910201309122
:10169000030130933C0420933B04209100013091DE
:1016A00001012115310541F42DB73EB740910401E8
:1016B00050910501241B350BE0913B04F0913C0453
:1016C000E217F307A0F42E1B3F0B2817390778F019
:1016D000AC014E5F5F4F2417350748F04E0F5F1F78
:1016E00050933C0440933B048193919302C0E0E00B
:1016F000F0E0CF01DF91CF911F910F910895CF932B
:10170000DF93009709F481C0FC01329713821282A3
:10171000A0913D04B0913E04109781F42081318165
:10172000820F931F20913B0430913C042817390706
:1017300051F5F0933C04E0933B0467C0ED0120E0D9
:1017400030E0CE17DF0740F44A815B819E014115EE
:101750005105F1F0EA01F5CFD383C2834081518175
:10176000840F951FC817D90759F488819981840F70
:10177000951F0296918380838A819B8193838283C4
:101780002115310529F4F0933E04E0933D043DC05A
:10179000E901FB83EA8349915991C40FD51FEC17E6
:1017A000FD0761F480819181840F951F0296E90104
:1017B00099838883828193819B838A83E0E0F0E030
:1017C00012968D919C911397009719F0FD01DC0101
:1017D000F7CF8D919C9111979D012E5F3F4F820F06
:1017E000931F20913B0430913C042817390769F47A
:1017F000309729F410923E0410923D0402C01382E7
:101800001282B0933C04A0933B04DF91CF910895E2
:1018100081E090E0F8940C940D0C10E0C5EED0E05F
:1018200004C0FE010E94E10A2196C63ED107C9F715
:04183000F894FFCF5A
:1018340000003F0420003F065B4F666D7D077F6F0D
:10184400777C395E797100000000A00110013E012F
:10185400EB016F014E0161017F00000000000000F8
:10186400000000002D032F03AF0940074007720951
:10187400400781FF81FF81FF81FF81FF81FF00001D
:101884002E03310340074007A5094007000000006C
:1018940000000000170217021702170200000000E0
:0A18A4000000000017020D0A00000A
:00000001FF
